{
  "contractName": "GiftCard",
  "abi": [
    {
      "inputs": [],
      "stateMutability": "nonpayable",
      "type": "constructor"
    },
    {
      "anonymous": false,
      "inputs": [
        {
          "indexed": true,
          "internalType": "address",
          "name": "operator",
          "type": "address"
        },
        {
          "indexed": true,
          "internalType": "address",
          "name": "from",
          "type": "address"
        },
        {
          "indexed": true,
          "internalType": "address",
          "name": "to",
          "type": "address"
        },
        {
          "indexed": false,
          "internalType": "uint256",
          "name": "id",
          "type": "uint256"
        },
        {
          "indexed": false,
          "internalType": "uint256",
          "name": "value",
          "type": "uint256"
        }
      ],
      "name": "TransferSingle",
      "type": "event"
    },
    {
      "inputs": [
        {
          "internalType": "uint256",
          "name": "",
          "type": "uint256"
        }
      ],
      "name": "cards",
      "outputs": [
        {
          "internalType": "uint256",
          "name": "value",
          "type": "uint256"
        },
        {
          "internalType": "uint256",
          "name": "issueDate",
          "type": "uint256"
        },
        {
          "internalType": "uint256",
          "name": "ExpireDate",
          "type": "uint256"
        },
        {
          "internalType": "address",
          "name": "beneficiary",
          "type": "address"
        },
        {
          "internalType": "address",
          "name": "generatedBy",
          "type": "address"
        }
      ],
      "stateMutability": "view",
      "type": "function",
      "constant": true
    },
    {
      "inputs": [
        {
          "internalType": "uint256",
          "name": "",
          "type": "uint256"
        }
      ],
      "name": "mycards",
      "outputs": [
        {
          "internalType": "uint256",
          "name": "value",
          "type": "uint256"
        },
        {
          "internalType": "uint256",
          "name": "issueDate",
          "type": "uint256"
        },
        {
          "internalType": "uint256",
          "name": "ExpireDate",
          "type": "uint256"
        },
        {
          "internalType": "address",
          "name": "beneficiary",
          "type": "address"
        },
        {
          "internalType": "address",
          "name": "generatedBy",
          "type": "address"
        }
      ],
      "stateMutability": "view",
      "type": "function",
      "constant": true
    },
    {
      "inputs": [
        {
          "internalType": "address",
          "name": "",
          "type": "address"
        }
      ],
      "name": "rewards",
      "outputs": [
        {
          "internalType": "uint256",
          "name": "points",
          "type": "uint256"
        },
        {
          "internalType": "uint256",
          "name": "issueDate",
          "type": "uint256"
        },
        {
          "internalType": "uint256",
          "name": "ExpireDate",
          "type": "uint256"
        }
      ],
      "stateMutability": "view",
      "type": "function",
      "constant": true
    },
    {
      "inputs": [],
      "name": "name",
      "outputs": [
        {
          "internalType": "string",
          "name": "",
          "type": "string"
        }
      ],
      "stateMutability": "view",
      "type": "function",
      "constant": true
    },
    {
      "inputs": [],
      "name": "symbol",
      "outputs": [
        {
          "internalType": "string",
          "name": "",
          "type": "string"
        }
      ],
      "stateMutability": "view",
      "type": "function",
      "constant": true
    },
    {
      "inputs": [
        {
          "internalType": "address",
          "name": "_beneficiary",
          "type": "address"
        },
        {
          "internalType": "uint256",
          "name": "total",
          "type": "uint256"
        }
      ],
      "name": "GiftCardbBuyFee",
      "outputs": [],
      "stateMutability": "payable",
      "type": "function",
      "payable": true
    },
    {
      "inputs": [
        {
          "internalType": "uint256",
          "name": "_cardId",
          "type": "uint256"
        },
        {
          "internalType": "address",
          "name": "_newBeneficiary",
          "type": "address"
        }
      ],
      "name": "transferGiftCardTo",
      "outputs": [],
      "stateMutability": "nonpayable",
      "type": "function"
    },
    {
      "inputs": [
        {
          "internalType": "uint256",
          "name": "_cardId",
          "type": "uint256"
        },
        {
          "internalType": "uint256",
          "name": "_amount",
          "type": "uint256"
        }
      ],
      "name": "GiftCardAddFee",
      "outputs": [],
      "stateMutability": "payable",
      "type": "function",
      "payable": true
    },
    {
      "inputs": [
        {
          "internalType": "uint256",
          "name": "_cardId",
          "type": "uint256"
        },
        {
          "internalType": "uint256",
          "name": "_amount",
          "type": "uint256"
        }
      ],
      "name": "withdrawMerchantBalance",
      "outputs": [],
      "stateMutability": "nonpayable",
      "type": "function"
    },
    {
      "inputs": [
        {
          "internalType": "address",
          "name": "rewardBeneficiary",
          "type": "address"
        }
      ],
      "name": "Redeem",
      "outputs": [],
      "stateMutability": "nonpayable",
      "type": "function"
    },
    {
      "inputs": [],
      "name": "myCards",
      "outputs": [
        {
          "components": [
            {
              "internalType": "uint256",
              "name": "value",
              "type": "uint256"
            },
            {
              "internalType": "uint256",
              "name": "issueDate",
              "type": "uint256"
            },
            {
              "internalType": "uint256",
              "name": "ExpireDate",
              "type": "uint256"
            },
            {
              "internalType": "address",
              "name": "beneficiary",
              "type": "address"
            },
            {
              "internalType": "address",
              "name": "generatedBy",
              "type": "address"
            }
          ],
          "internalType": "struct GiftCard.Card[]",
          "name": "",
          "type": "tuple[]"
        }
      ],
      "stateMutability": "nonpayable",
      "type": "function"
    },
    {
      "inputs": [
        {
          "internalType": "address",
          "name": "from",
          "type": "address"
        },
        {
          "internalType": "address",
          "name": "to",
          "type": "address"
        },
        {
          "internalType": "uint256",
          "name": "id",
          "type": "uint256"
        },
        {
          "internalType": "uint256",
          "name": "amount",
          "type": "uint256"
        },
        {
          "internalType": "bytes",
          "name": "data",
          "type": "bytes"
        }
      ],
      "name": "safeTransferFrom",
      "outputs": [],
      "stateMutability": "nonpayable",
      "type": "function"
    },
    {
      "inputs": [
        {
          "internalType": "address",
          "name": "account",
          "type": "address"
        },
        {
          "internalType": "address",
          "name": "operator",
          "type": "address"
        }
      ],
      "name": "isApprovedForAll",
      "outputs": [
        {
          "internalType": "bool",
          "name": "",
          "type": "bool"
        }
      ],
      "stateMutability": "view",
      "type": "function",
      "constant": true
    }
  ],
  "bytecode": "0x60806040523480156200001157600080fd5b506040518060400160405280600581526020017f427261766f000000000000000000000000000000000000000000000000000000815250600190805190602001906200005f929190620000b4565b506040518060400160405280600381526020017f425256000000000000000000000000000000000000000000000000000000000081525060009080519060200190620000ad929190620000b4565b506200016a565b828054600181600116156101000203166002900490600052602060002090601f016020900481019282620000ec576000855562000138565b82601f106200010757805160ff191683800117855562000138565b8280016001018555821562000138579182015b82811115620001375782518255916020019190600101906200011a565b5b5090506200014791906200014b565b5090565b5b80821115620001665760008160009055506001016200014c565b5090565b61297a806200017a6000396000f3fe6080604052600436106100c25760003560e01c8063acfb9d341161007f578063d1b5ea7f11610059578063d1b5ea7f14610277578063e985e9c5146102a0578063eda9f7d5146102dd578063f242432a146102f9576100c2565b8063acfb9d34146101ef578063bd8643071461021a578063cfeb97801461025b576100c2565b806306fdde03146100c75780630700037d146100f257806315c0b585146101315780638dc107681461015a57806395d89b411461019b578063a418447d146101c6575b600080fd5b3480156100d357600080fd5b506100dc610322565b6040516100e9919061254e565b60405180910390f35b3480156100fe57600080fd5b5061011960048036038101906101149190611d6e565b6103c4565b60405161012893929190612739565b60405180910390f35b34801561013d57600080fd5b5061015860048036038101906101539190611ec7565b6103ee565b005b34801561016657600080fd5b50610181600480360381019061017c9190611e9e565b610693565b604051610192959493929190612770565b60405180910390f35b3480156101a757600080fd5b506101b0610709565b6040516101bd919061254e565b60405180910390f35b3480156101d257600080fd5b506101ed60048036038101906101e89190611f03565b6107ab565b005b3480156101fb57600080fd5b506102046109df565b6040516102119190612511565b60405180910390f35b34801561022657600080fd5b50610241600480360381019061023c9190611e9e565b610cb9565b604051610252959493929190612770565b60405180910390f35b61027560048036038101906102709190611f03565b610d3f565b005b34801561028357600080fd5b5061029e60048036038101906102999190611d6e565b610f4c565b005b3480156102ac57600080fd5b506102c760048036038101906102c29190611d97565b610fab565b6040516102d49190612533565b60405180910390f35b6102f760048036038101906102f29190611e62565b61103f565b005b34801561030557600080fd5b50610320600480360381019061031b9190611dd3565b61119d565b005b606060018054600181600116156101000203166002900480601f0160208091040260200160405190810160405280929190818152602001828054600181600116156101000203166002900480156103ba5780601f1061038f576101008083540402835291602001916103ba565b820191906000526020600020905b81548152906001019060200180831161039d57829003601f168201915b5050505050905090565b60056020528060005260406000206000915090508060000154908060010154908060020154905083565b81600073ffffffffffffffffffffffffffffffffffffffff166004600083815260200190815260200160002060030160009054906101000a900473ffffffffffffffffffffffffffffffffffffffff1673ffffffffffffffffffffffffffffffffffffffff161415610495576040517f08c379a000000000000000000000000000000000000000000000000000000000815260040161048c90612570565b60405180910390fd5b826004600082815260200190815260200160002060030160009054906101000a900473ffffffffffffffffffffffffffffffffffffffff1673ffffffffffffffffffffffffffffffffffffffff163373ffffffffffffffffffffffffffffffffffffffff161461053a576040517f08c379a0000000000000000000000000000000000000000000000000000000008152600401610531906125b0565b60405180910390fd5b82600073ffffffffffffffffffffffffffffffffffffffff168173ffffffffffffffffffffffffffffffffffffffff1614156105ab576040517f08c379a00000000000000000000000000000000000000000000000000000000081526004016105a290612590565b60405180910390fd5b8442600460008381526020019081526020016000206002015411610604576040517f08c379a00000000000000000000000000000000000000000000000000000000081526004016105fb906126f0565b60405180910390fd5b610636338688600460008b8152602001908152602001600020600001546040518060200160405280600081525061119d565b846004600088815260200190815260200160002060030160006101000a81548173ffffffffffffffffffffffffffffffffffffffff021916908373ffffffffffffffffffffffffffffffffffffffff160217905550505050505050565b60046020528060005260406000206000915090508060000154908060010154908060020154908060030160009054906101000a900473ffffffffffffffffffffffffffffffffffffffff16908060040160009054906101000a900473ffffffffffffffffffffffffffffffffffffffff16905085565b606060008054600181600116156101000203166002900480601f0160208091040260200160405190810160405280929190818152602001828054600181600116156101000203166002900480156107a15780601f10610776576101008083540402835291602001916107a1565b820191906000526020600020905b81548152906001019060200180831161078457829003601f168201915b5050505050905090565b81600073ffffffffffffffffffffffffffffffffffffffff166004600083815260200190815260200160002060030160009054906101000a900473ffffffffffffffffffffffffffffffffffffffff1673ffffffffffffffffffffffffffffffffffffffff161415610852576040517f08c379a000000000000000000000000000000000000000000000000000000000815260040161084990612570565b60405180910390fd5b826004600082815260200190815260200160002060030160009054906101000a900473ffffffffffffffffffffffffffffffffffffffff1673ffffffffffffffffffffffffffffffffffffffff163373ffffffffffffffffffffffffffffffffffffffff16146108f7576040517f08c379a00000000000000000000000000000000000000000000000000000000081526004016108ee906125b0565b60405180910390fd5b8342600460008381526020019081526020016000206002015411610950576040517f08c379a0000000000000000000000000000000000000000000000000000000008152600401610947906126f0565b60405180910390fd5b60046000868152602001908152602001600020600001548411156109a9576040517f08c379a00000000000000000000000000000000000000000000000000000000081526004016109a090612690565b60405180910390fd5b8360046000878152602001908152602001600020600001600082825403925050819055506109d8338686611483565b5050505050565b606060005b600a811015610b91573373ffffffffffffffffffffffffffffffffffffffff166004600083815260200190815260200160002060030160009054906101000a900473ffffffffffffffffffffffffffffffffffffffff1673ffffffffffffffffffffffffffffffffffffffff161415610b845760076004600083815260200190815260200160002090806001815401808255809150506001900390600052602060002090600502016000909190919091506000820154816000015560018201548160010155600282015481600201556003820160009054906101000a900473ffffffffffffffffffffffffffffffffffffffff168160030160006101000a81548173ffffffffffffffffffffffffffffffffffffffff021916908373ffffffffffffffffffffffffffffffffffffffff1602179055506004820160009054906101000a900473ffffffffffffffffffffffffffffffffffffffff168160040160006101000a81548173ffffffffffffffffffffffffffffffffffffffff021916908373ffffffffffffffffffffffffffffffffffffffff16021790555050505b80806001019150506109e4565b506007805480602002602001604051908101604052809291908181526020016000905b82821015610cb057838290600052602060002090600502016040518060a00160405290816000820154815260200160018201548152602001600282015481526020016003820160009054906101000a900473ffffffffffffffffffffffffffffffffffffffff1673ffffffffffffffffffffffffffffffffffffffff1673ffffffffffffffffffffffffffffffffffffffff1681526020016004820160009054906101000a900473ffffffffffffffffffffffffffffffffffffffff1673ffffffffffffffffffffffffffffffffffffffff1673ffffffffffffffffffffffffffffffffffffffff168152505081526020019060010190610bb4565b50505050905090565b60078181548110610cc957600080fd5b90600052602060002090600502016000915090508060000154908060010154908060020154908060030160009054906101000a900473ffffffffffffffffffffffffffffffffffffffff16908060040160009054906101000a900473ffffffffffffffffffffffffffffffffffffffff16905085565b81600073ffffffffffffffffffffffffffffffffffffffff166004600083815260200190815260200160002060030160009054906101000a900473ffffffffffffffffffffffffffffffffffffffff1673ffffffffffffffffffffffffffffffffffffffff161415610de6576040517f08c379a0000000000000000000000000000000000000000000000000000000008152600401610ddd90612570565b60405180910390fd5b826004600082815260200190815260200160002060030160009054906101000a900473ffffffffffffffffffffffffffffffffffffffff1673ffffffffffffffffffffffffffffffffffffffff163373ffffffffffffffffffffffffffffffffffffffff1614610e8b576040517f08c379a0000000000000000000000000000000000000000000000000000000008152600401610e82906125b0565b60405180910390fd5b8342600460008381526020019081526020016000206002015411610ee4576040517f08c379a0000000000000000000000000000000000000000000000000000000008152600401610edb906126f0565b60405180910390fd5b348414610f26576040517f08c379a0000000000000000000000000000000000000000000000000000000008152600401610f1d90612690565b60405180910390fd5b600060646002860281610f3557fe5b0485039050610f44868261169b565b505050505050565b60006001905080600560008473ffffffffffffffffffffffffffffffffffffffff1673ffffffffffffffffffffffffffffffffffffffff1681526020019081526020016000206000015410610fa757610fa6826001611732565b5b5050565b6000600860008473ffffffffffffffffffffffffffffffffffffffff1673ffffffffffffffffffffffffffffffffffffffff16815260200190815260200160002060008373ffffffffffffffffffffffffffffffffffffffff1673ffffffffffffffffffffffffffffffffffffffff16815260200190815260200160002060009054906101000a900460ff16905092915050565b81600073ffffffffffffffffffffffffffffffffffffffff168173ffffffffffffffffffffffffffffffffffffffff1614156110b0576040517f08c379a00000000000000000000000000000000000000000000000000000000081526004016110a790612590565b60405180910390fd5b600082116110f3576040517f08c379a00000000000000000000000000000000000000000000000000000000081526004016110ea90612630565b60405180910390fd5b6127108210611137576040517f08c379a000000000000000000000000000000000000000000000000000000000815260040161112e906126b0565b60405180910390fd5b348214611179576040517f08c379a000000000000000000000000000000000000000000000000000000000815260040161117090612690565b60405180910390fd5b60006064600284028161118857fe5b0483039050611197848261188e565b50505050565b600073ffffffffffffffffffffffffffffffffffffffff168473ffffffffffffffffffffffffffffffffffffffff16141561120d576040517f08c379a000000000000000000000000000000000000000000000000000000000815260040161120490612610565b60405180910390fd5b3373ffffffffffffffffffffffffffffffffffffffff168573ffffffffffffffffffffffffffffffffffffffff16148061124d575061124c8533610fab565b5b61128c576040517f08c379a0000000000000000000000000000000000000000000000000000000008152600401611283906125f0565b60405180910390fd5b60003390506112af8187876112a088611a84565b6112a988611a84565b87611af4565b60006006600086815260200190815260200160002060008873ffffffffffffffffffffffffffffffffffffffff1673ffffffffffffffffffffffffffffffffffffffff16815260200190815260200160002054905083811015611347576040517f08c379a000000000000000000000000000000000000000000000000000000000815260040161133e90612670565b60405180910390fd5b8381036006600087815260200190815260200160002060008973ffffffffffffffffffffffffffffffffffffffff1673ffffffffffffffffffffffffffffffffffffffff16815260200190815260200160002081905550836006600087815260200190815260200160002060008873ffffffffffffffffffffffffffffffffffffffff1673ffffffffffffffffffffffffffffffffffffffff168152602001908152602001600020600082825401925050819055508573ffffffffffffffffffffffffffffffffffffffff168773ffffffffffffffffffffffffffffffffffffffff168373ffffffffffffffffffffffffffffffffffffffff167fc3d58168c5ae7397731d063d5bbf3d657854427343f4c083240f7aacaa2d0f628888604051611472929190612710565b60405180910390a450505050505050565b600073ffffffffffffffffffffffffffffffffffffffff168373ffffffffffffffffffffffffffffffffffffffff1614156114f3576040517f08c379a00000000000000000000000000000000000000000000000000000000081526004016114ea90612650565b60405180910390fd5b60003390506115268185600061150887611a84565b61151187611a84565b60405180602001604052806000815250611af4565b60006006600085815260200190815260200160002060008673ffffffffffffffffffffffffffffffffffffffff1673ffffffffffffffffffffffffffffffffffffffff168152602001908152602001600020549050828110156115be576040517f08c379a00000000000000000000000000000000000000000000000000000000081526004016115b5906125d0565b60405180910390fd5b8281036006600086815260200190815260200160002060008773ffffffffffffffffffffffffffffffffffffffff1673ffffffffffffffffffffffffffffffffffffffff16815260200190815260200160002081905550600073ffffffffffffffffffffffffffffffffffffffff168573ffffffffffffffffffffffffffffffffffffffff168373ffffffffffffffffffffffffffffffffffffffff167fc3d58168c5ae7397731d063d5bbf3d657854427343f4c083240f7aacaa2d0f62878760405161168c929190612710565b60405180910390a45050505050565b8060046000848152602001908152602001600020600001600082825401925050819055506116da33838360405180602001604052806000815250611afc565b606460018202816116e757fe5b04600560003373ffffffffffffffffffffffffffffffffffffffff1673ffffffffffffffffffffffffffffffffffffffff168152602001908152602001600020600001819055505050565b61173a611c74565b6040518060a001604052808381526020014281526020016301e13380420181526020018473ffffffffffffffffffffffffffffffffffffffff1681526020013373ffffffffffffffffffffffffffffffffffffffff1681525090508060046000600354815260200190815260200160002060008201518160000155602082015181600101556040820151816002015560608201518160030160006101000a81548173ffffffffffffffffffffffffffffffffffffffff021916908373ffffffffffffffffffffffffffffffffffffffff16021790555060808201518160040160006101000a81548173ffffffffffffffffffffffffffffffffffffffff021916908373ffffffffffffffffffffffffffffffffffffffff160217905550905050611877836003548460405180602001604052806000815250611afc565b600360008154809291906001019190505550505050565b611896611c74565b6040518060a001604052808381526020014281526020016301e13380420181526020018473ffffffffffffffffffffffffffffffffffffffff1681526020013373ffffffffffffffffffffffffffffffffffffffff1681525090508060046000600354815260200190815260200160002060008201518160000155602082015181600101556040820151816002015560608201518160030160006101000a81548173ffffffffffffffffffffffffffffffffffffffff021916908373ffffffffffffffffffffffffffffffffffffffff16021790555060808201518160040160006101000a81548173ffffffffffffffffffffffffffffffffffffffff021916908373ffffffffffffffffffffffffffffffffffffffff1602179055509050506119d3836003548460405180602001604052806000815250611afc565b6119db611ccf565b6040518060600160405280606460018602816119f357fe5b0481526020014281526020016302932e004201815250905080600560008673ffffffffffffffffffffffffffffffffffffffff1673ffffffffffffffffffffffffffffffffffffffff16815260200190815260200160002060008201518160000155602082015181600101556040820151816002015590505060036000815480929190600101919050555050505050565b606080600167ffffffffffffffff81118015611a9f57600080fd5b50604051908082528060200260200182016040528015611ace5781602001602082028036833780820191505090505b5090508281600081518110611adf57fe5b60200260200101818152505080915050919050565b505050505050565b600073ffffffffffffffffffffffffffffffffffffffff168473ffffffffffffffffffffffffffffffffffffffff161415611b6c576040517f08c379a0000000000000000000000000000000000000000000000000000000008152600401611b63906126d0565b60405180910390fd5b6000339050611b9081600087611b8188611a84565b611b8a88611a84565b87611af4565b826006600086815260200190815260200160002060008773ffffffffffffffffffffffffffffffffffffffff1673ffffffffffffffffffffffffffffffffffffffff168152602001908152602001600020600082825401925050819055508473ffffffffffffffffffffffffffffffffffffffff16600073ffffffffffffffffffffffffffffffffffffffff168273ffffffffffffffffffffffffffffffffffffffff167fc3d58168c5ae7397731d063d5bbf3d657854427343f4c083240f7aacaa2d0f628787604051611c65929190612710565b60405180910390a45050505050565b6040518060a00160405280600081526020016000815260200160008152602001600073ffffffffffffffffffffffffffffffffffffffff168152602001600073ffffffffffffffffffffffffffffffffffffffff1681525090565b60405180606001604052806000815260200160008152602001600081525090565b600081359050611cff81612916565b92915050565b600082601f830112611d1657600080fd5b8135611d29611d24826127f4565b6127c3565b91508082526020830160208301858383011115611d4557600080fd5b611d508382846128c1565b50505092915050565b600081359050611d688161292d565b92915050565b600060208284031215611d8057600080fd5b6000611d8e84828501611cf0565b91505092915050565b60008060408385031215611daa57600080fd5b6000611db885828601611cf0565b9250506020611dc985828601611cf0565b9150509250929050565b600080600080600060a08688031215611deb57600080fd5b6000611df988828901611cf0565b9550506020611e0a88828901611cf0565b9450506040611e1b88828901611d59565b9350506060611e2c88828901611d59565b925050608086013567ffffffffffffffff811115611e4957600080fd5b611e5588828901611d05565b9150509295509295909350565b60008060408385031215611e7557600080fd5b6000611e8385828601611cf0565b9250506020611e9485828601611d59565b9150509250929050565b600060208284031215611eb057600080fd5b6000611ebe84828501611d59565b91505092915050565b60008060408385031215611eda57600080fd5b6000611ee885828601611d59565b9250506020611ef985828601611cf0565b9150509250929050565b60008060408385031215611f1657600080fd5b6000611f2485828601611d59565b9250506020611f3585828601611d59565b9150509250929050565b6000611f4b838361248b565b60a08301905092915050565b611f6081612879565b82525050565b611f6f81612879565b82525050565b6000611f8082612834565b611f8a8185612857565b9350611f9583612824565b8060005b83811015611fc6578151611fad8882611f3f565b9750611fb88361284a565b925050600181019050611f99565b5085935050505092915050565b611fdc8161288b565b82525050565b6000611fed8261283f565b611ff78185612868565b93506120078185602086016128d0565b61201081612905565b840191505092915050565b6000612028601a83612868565b91507f546865206361726420494420646f6573204e6f742045786973740000000000006000830152602082019050919050565b6000612068601483612868565b91507f546865206164647265737320697320456d7074790000000000000000000000006000830152602082019050919050565b60006120a8601583612868565b91507f796f7520617265206e6f7420746865204f776e657200000000000000000000006000830152602082019050919050565b60006120e8602483612868565b91507f455243313135353a206275726e20616d6f756e7420657863656564732062616c60008301527f616e6365000000000000000000000000000000000000000000000000000000006020830152604082019050919050565b600061214e602983612868565b91507f455243313135353a2063616c6c6572206973206e6f74206f776e6572206e6f7260008301527f20617070726f76656400000000000000000000000000000000000000000000006020830152604082019050919050565b60006121b4602583612868565b91507f455243313135353a207472616e7366657220746f20746865207a65726f20616460008301527f64726573730000000000000000000000000000000000000000000000000000006020830152604082019050919050565b600061221a602383612868565b91507f54686520616d6f756e742073686f756c6420626520677265617465722074686160008301527f6e203000000000000000000000000000000000000000000000000000000000006020830152604082019050919050565b6000612280602383612868565b91507f455243313135353a206275726e2066726f6d20746865207a65726f206164647260008301527f65737300000000000000000000000000000000000000000000000000000000006020830152604082019050919050565b60006122e6602a83612868565b91507f455243313135353a20696e73756666696369656e742062616c616e636520666f60008301527f72207472616e73666572000000000000000000000000000000000000000000006020830152604082019050919050565b600061234c601283612868565b91507f436865636b20796f75722062616c616e636500000000000000000000000000006000830152602082019050919050565b600061238c602183612868565b91507f54686520616d6f756e742073686f756c64206c657373207468616e203130303060008301527f30000000000000000000000000000000000000000000000000000000000000006020830152604082019050919050565b60006123f2602183612868565b91507f455243313135353a206d696e7420746f20746865207a65726f2061646472657360008301527f73000000000000000000000000000000000000000000000000000000000000006020830152604082019050919050565b6000612458601283612868565b91507f54686520636172642069732045787069726500000000000000000000000000006000830152602082019050919050565b60a0820160008201516124a160008501826124f3565b5060208201516124b460208501826124f3565b5060408201516124c760408501826124f3565b5060608201516124da6060850182611f57565b5060808201516124ed6080850182611f57565b50505050565b6124fc816128b7565b82525050565b61250b816128b7565b82525050565b6000602082019050818103600083015261252b8184611f75565b905092915050565b60006020820190506125486000830184611fd3565b92915050565b600060208201905081810360008301526125688184611fe2565b905092915050565b600060208201905081810360008301526125898161201b565b9050919050565b600060208201905081810360008301526125a98161205b565b9050919050565b600060208201905081810360008301526125c98161209b565b9050919050565b600060208201905081810360008301526125e9816120db565b9050919050565b6000602082019050818103600083015261260981612141565b9050919050565b60006020820190508181036000830152612629816121a7565b9050919050565b600060208201905081810360008301526126498161220d565b9050919050565b6000602082019050818103600083015261266981612273565b9050919050565b60006020820190508181036000830152612689816122d9565b9050919050565b600060208201905081810360008301526126a98161233f565b9050919050565b600060208201905081810360008301526126c98161237f565b9050919050565b600060208201905081810360008301526126e9816123e5565b9050919050565b600060208201905081810360008301526127098161244b565b9050919050565b60006040820190506127256000830185612502565b6127326020830184612502565b9392505050565b600060608201905061274e6000830186612502565b61275b6020830185612502565b6127686040830184612502565b949350505050565b600060a0820190506127856000830188612502565b6127926020830187612502565b61279f6040830186612502565b6127ac6060830185611f66565b6127b96080830184611f66565b9695505050505050565b6000604051905081810181811067ffffffffffffffff821117156127ea576127e9612903565b5b8060405250919050565b600067ffffffffffffffff82111561280f5761280e612903565b5b601f19601f8301169050602081019050919050565b6000819050602082019050919050565b600081519050919050565b600081519050919050565b6000602082019050919050565b600082825260208201905092915050565b600082825260208201905092915050565b600061288482612897565b9050919050565b60008115159050919050565b600073ffffffffffffffffffffffffffffffffffffffff82169050919050565b6000819050919050565b82818337600083830152505050565b60005b838110156128ee5780820151818401526020810190506128d3565b838111156128fd576000848401525b50505050565bfe5b6000601f19601f8301169050919050565b61291f81612879565b811461292a57600080fd5b50565b612936816128b7565b811461294157600080fd5b5056fea26469706673582212205de506d06685fd7db4cdcc5f7c1c9bce9acd8ea36bbc3f9947c4638c7b56a65764736f6c63430007050033",
  "immutableReferences": {},
  "source": "pragma solidity >=0.6.0 <0.8.4;\npragma abicoder v2;\n\ncontract GiftCard {\n    \n   string private _symbol;\n   string private  _name;\n   constructor() public{\n        _name = \"Bravo\";\n        _symbol = \"BRV\";\n    }\n    \n    struct Card {\n        uint value;\n        uint issueDate;\n        uint ExpireDate;\n        address beneficiary;\n        address generatedBy;\n    }\n    \n    struct reward {\n        uint points;\n        uint issueDate;\n        uint ExpireDate;\n    }\n    \n    address owner;\n    uint _cardId;\n    mapping (uint => Card) public cards;\n    mapping (address => reward) public rewards;\n    mapping (uint256 => mapping(address => uint256)) private _balances;\n    \n\n    function name() public view returns (string memory) {\n        return _name;\n    }\n\n    function symbol() public view  returns (string memory) {\n        return _symbol;\n    }\n    modifier onlyOwner (uint _cardId) {\n        require(msg.sender == cards[_cardId].beneficiary, \"you are not the Owner\" );\n      _;\n     }\n    modifier notNull(address _address) {\n        require(_address != address(0),\"The address is Empty\");\n        _;\n    }\n    modifier exist(uint _cardId) {\n        require(cards[_cardId].beneficiary !=  address(0) ,\"The card ID does Not Exist\");\n        _;\n    }\n    modifier expire(uint _cardId) {\n        require(cards[_cardId].ExpireDate > block.timestamp ,\"The card is Expire\");\n        _;\n    }\n    \n    function GiftCardbBuyFee(address _beneficiary, uint total) public payable notNull(_beneficiary){\n        //Need to calc fees and total in the website\n        require(total> 0 , \"The amount should be greater than 0\" );\n        require(total< 10000, \"The amount should less than 10000\" );\n        require(total == msg.value, \"Check your balance\");\n        uint _value = total - (total*2/100);\n        issueGiftCard(_beneficiary, _value);\n    }\n    \n    function issueGiftCard(address _beneficiary,uint _value) private {\n        Card memory newCard = Card (_value, block.timestamp, block.timestamp + 365 days, _beneficiary,msg.sender);\n        cards[_cardId] = newCard;\n        _mint(_beneficiary, _cardId, _value, \"\");\n        reward memory newReward= reward(_value*1/100,block.timestamp, block.timestamp + 500 days);\n        rewards[_beneficiary] = newReward;\n        _cardId++;\n    }\n    \n    function transferGiftCardTo(uint _cardId, address _newBeneficiary) public exist(_cardId) onlyOwner (_cardId) notNull(_newBeneficiary) expire(_cardId) {\n         safeTransferFrom (msg.sender,_newBeneficiary,_cardId, cards[_cardId].value,\"\");\n         cards[_cardId].beneficiary = _newBeneficiary;\n    }\n     \n    function GiftCardAddFee(uint _cardId, uint _amount) public payable exist(_cardId) onlyOwner (_cardId) expire(_cardId){\n        //Need to calc fees and total in the website\n        require(_amount == msg.value, \"Check your balance\");\n        uint _value = _amount - (_amount*2/100);\n        addFundsToGiftCard( _cardId,  _value);\n    }\n    \n    function addFundsToGiftCard(uint _cardId, uint _amount) private {\n         cards[_cardId].value+=_amount;\n         _mint(msg.sender, _cardId, _amount, \"\");\n         rewards[msg.sender].points=_amount*1/100;\n    }\n    \n    function withdrawMerchantBalance( uint _cardId, uint _amount ) public exist(_cardId) onlyOwner (_cardId) expire(_cardId) {\n        require(_amount <=  cards[_cardId].value, \"Check your balance\");\n        cards[_cardId].value-=_amount;\n        _burn(msg.sender, _cardId, _amount);\n    }\n     \n     // When need to be call????\n    function Redeem(address rewardBeneficiary) public {\n        uint limit=1;\n        if (rewards[rewardBeneficiary].points >= limit){\n        issueRewards(rewardBeneficiary,1);\n          }\n    }\n      \n    function issueRewards(address _beneficiary,uint _value) private  {\n         //****Need to show the customer the reward card****\n        Card memory newCard = Card (_value, block.timestamp, block.timestamp + 365 days, _beneficiary,msg.sender);\n        cards[_cardId] = newCard;\n        _mint(_beneficiary, _cardId, _value, \"\");\n        _cardId++;\n    }\n    \n    Card [] public  mycards ;\n\nfunction myCards() public returns (Card [] memory) {\n         for (uint i=0; i< 10 ; i++ ){\n         if(cards[i].beneficiary==msg.sender){\n         mycards.push(cards[i]);\n             }\n         }\n         return mycards;\n    }\n  \n //////// **************ERC1155 function ************************\n \n    event TransferSingle(address indexed operator, address indexed from, address indexed to, uint256 id, uint256 value);\n    mapping (address => mapping(address => bool)) private _operatorApprovals;\n\n    function _mint(address account, uint256 id, uint256 amount, bytes memory data) internal  {\n        require(account != address(0), \"ERC1155: mint to the zero address\");\n        address operator = msg.sender;\n        _beforeTokenTransfer(operator, address(0), account, _asSingletonArray(id), _asSingletonArray(amount), data);\n        _balances[id][account] += amount;\n        emit TransferSingle(operator, address(0), account, id, amount);\n    }\n    \n    function safeTransferFrom(address from, address to, uint256 id, uint256 amount, bytes memory data) public {\n        require(to != address(0), \"ERC1155: transfer to the zero address\");\n        require(from == msg.sender || isApprovedForAll(from, msg.sender),\"ERC1155: caller is not owner nor approved\");\n        address operator = msg.sender;\n        _beforeTokenTransfer(operator, from, to, _asSingletonArray(id), _asSingletonArray(amount), data);\n        uint256 fromBalance = _balances[id][from];\n        require(fromBalance >= amount, \"ERC1155: insufficient balance for transfer\");\n        _balances[id][from] = fromBalance - amount;\n        _balances[id][to] += amount;\n        emit TransferSingle(operator, from, to, id, amount);\n    }\n    \n    function _burn(address account, uint256 id, uint256 amount) internal {\n        require(account != address(0), \"ERC1155: burn from the zero address\");\n        address operator = msg.sender;\n        _beforeTokenTransfer(operator, account, address(0), _asSingletonArray(id), _asSingletonArray(amount), \"\");\n        uint256 accountBalance = _balances[id][account];\n        require(accountBalance >= amount, \"ERC1155: burn amount exceeds balance\");\n        _balances[id][account] = accountBalance - amount;\n        emit TransferSingle(operator, account, address(0), id, amount);\n    }\n    \n    function _beforeTokenTransfer(address operator, address from, address to, uint256[] memory ids, uint256[] memory amounts, bytes memory data) internal{ \n    }\n        \n    function _asSingletonArray(uint256 element) private pure returns (uint256[] memory) {\n        uint256[] memory array = new uint256[](1);\n        array[0] = element;\n        return array;\n    }\n    \n    function isApprovedForAll(address account, address operator) public view returns (bool) {\n        return _operatorApprovals[account][operator];\n    }\n    \n\n\n     \n}",
  "sourcePath": "/Users/salwaalhajjaji/Desktop/capstone/contracts/GiftCard.sol",
  "compiler": {
    "name": "solc",
    "version": "0.7.5+commit.eb77ed08.Emscripten.clang"
  },
  "schemaVersion": "3.3.4",
  "updatedAt": "2021-04-15T22:29:25.998Z",
  "networkType": "ethereum",
  "devdoc": {
    "kind": "dev",
    "methods": {},
    "version": 1
  },
  "userdoc": {
    "kind": "user",
    "methods": {},
    "version": 1
  }
}